{"abi":[{"type":"constructor","inputs":[{"name":"_token","type":"address","internalType":"address"}],"stateMutability":"nonpayable"},{"type":"receive","stateMutability":"payable"},{"type":"function","name":"MODEL_ID","inputs":[],"outputs":[{"name":"","type":"uint256","internalType":"uint256"}],"stateMutability":"view"},{"type":"function","name":"agentCount","inputs":[],"outputs":[{"name":"","type":"uint256","internalType":"uint256"}],"stateMutability":"view"},{"type":"function","name":"agentList","inputs":[{"name":"","type":"uint256","internalType":"uint256"}],"outputs":[{"name":"","type":"address","internalType":"address"}],"stateMutability":"view"},{"type":"function","name":"agents","inputs":[{"name":"","type":"address","internalType":"address"}],"outputs":[{"name":"name","type":"string","internalType":"string"},{"name":"totalScore","type":"uint256","internalType":"uint256"},{"name":"wins","type":"uint256","internalType":"uint256"},{"name":"earnings","type":"uint256","internalType":"uint256"},{"name":"registered","type":"bool","internalType":"bool"}],"stateMutability":"view"},{"type":"function","name":"answerCids","inputs":[{"name":"","type":"uint256","internalType":"uint256"},{"name":"","type":"address","internalType":"address"}],"outputs":[{"name":"","type":"string","internalType":"string"}],"stateMutability":"view"},{"type":"function","name":"answerWindow","inputs":[],"outputs":[{"name":"","type":"uint256","internalType":"uint256"}],"stateMutability":"view"},{"type":"function","name":"answers","inputs":[{"name":"","type":"uint256","internalType":"uint256"},{"name":"","type":"address","internalType":"address"}],"outputs":[{"name":"","type":"bytes32","internalType":"bytes32"}],"stateMutability":"view"},{"type":"function","name":"closeExam","inputs":[{"name":"roundId","type":"uint256","internalType":"uint256"}],"outputs":[],"stateMutability":"nonpayable"},{"type":"function","name":"currentRound","inputs":[],"outputs":[{"name":"","type":"uint256","internalType":"uint256"}],"stateMutability":"view"},{"type":"function","name":"description","inputs":[],"outputs":[{"name":"","type":"string","internalType":"string"}],"stateMutability":"view"},{"type":"function","name":"emergencyWithdraw","inputs":[{"name":"to","type":"address","internalType":"address payable"}],"outputs":[],"stateMutability":"nonpayable"},{"type":"function","name":"fulfillReasoning","inputs":[{"name":"requestId","type":"uint256","internalType":"uint256"},{"name":"choice","type":"uint8","internalType":"uint8"}],"outputs":[],"stateMutability":"nonpayable"},{"type":"function","name":"getParticipants","inputs":[{"name":"roundId","type":"uint256","internalType":"uint256"}],"outputs":[{"name":"","type":"address[]","internalType":"address[]"}],"stateMutability":"view"},{"type":"function","name":"getRound","inputs":[{"name":"roundId","type":"uint256","internalType":"uint256"}],"outputs":[{"name":"questionReqId","type":"uint256","internalType":"uint256"},{"name":"scoreReqId","type":"uint256","internalType":"uint256"},{"name":"startTime","type":"uint256","internalType":"uint256"},{"name":"prizePool","type":"uint256","internalType":"uint256"},{"name":"phase","type":"uint8","internalType":"enum LobsterUniversityVault.RoundPhase"},{"name":"scored","type":"bool","internalType":"bool"},{"name":"winners","type":"address[3]","internalType":"address[3]"},{"name":"prizes","type":"uint256[3]","internalType":"uint256[3]"}],"stateMutability":"view"},{"type":"function","name":"hasAnswered","inputs":[{"name":"","type":"uint256","internalType":"uint256"},{"name":"","type":"address","internalType":"address"}],"outputs":[{"name":"","type":"bool","internalType":"bool"}],"stateMutability":"view"},{"type":"function","name":"isScoreReq","inputs":[{"name":"","type":"uint256","internalType":"uint256"}],"outputs":[{"name":"","type":"bool","internalType":"bool"}],"stateMutability":"view"},{"type":"function","name":"lastRequestId","inputs":[],"outputs":[{"name":"","type":"uint256","internalType":"uint256"}],"stateMutability":"view"},{"type":"function","name":"minHolding","inputs":[],"outputs":[{"name":"","type":"uint256","internalType":"uint256"}],"stateMutability":"view"},{"type":"function","name":"onFlapAIRequestRefunded","inputs":[{"name":"requestId","type":"uint256","internalType":"uint256"}],"outputs":[],"stateMutability":"payable"},{"type":"function","name":"owner","inputs":[],"outputs":[{"name":"","type":"address","internalType":"address"}],"stateMutability":"view"},{"type":"function","name":"registerAgent","inputs":[{"name":"name","type":"string","internalType":"string"}],"outputs":[],"stateMutability":"nonpayable"},{"type":"function","name":"reqToRound","inputs":[{"name":"","type":"uint256","internalType":"uint256"}],"outputs":[{"name":"","type":"uint256","internalType":"uint256"}],"stateMutability":"view"},{"type":"function","name":"rescueToken","inputs":[{"name":"t","type":"address","internalType":"address"},{"name":"to","type":"address","internalType":"address"}],"outputs":[],"stateMutability":"nonpayable"},{"type":"function","name":"setAnswerWindow","inputs":[{"name":"val","type":"uint256","internalType":"uint256"}],"outputs":[],"stateMutability":"nonpayable"},{"type":"function","name":"setMinHolding","inputs":[{"name":"val","type":"uint256","internalType":"uint256"}],"outputs":[],"stateMutability":"nonpayable"},{"type":"function","name":"startExam","inputs":[],"outputs":[],"stateMutability":"nonpayable"},{"type":"function","name":"submitAnswer","inputs":[{"name":"roundId","type":"uint256","internalType":"uint256"},{"name":"answerHash","type":"bytes32","internalType":"bytes32"},{"name":"answerCid","type":"string","internalType":"string"}],"outputs":[],"stateMutability":"nonpayable"},{"type":"function","name":"submitWinners","inputs":[{"name":"roundId","type":"uint256","internalType":"uint256"},{"name":"winners","type":"address[3]","internalType":"address[3]"}],"outputs":[],"stateMutability":"nonpayable"},{"type":"function","name":"token","inputs":[],"outputs":[{"name":"","type":"address","internalType":"address"}],"stateMutability":"view"},{"type":"function","name":"totalExams","inputs":[],"outputs":[{"name":"","type":"uint256","internalType":"uint256"}],"stateMutability":"view"},{"type":"function","name":"transferOwnership","inputs":[{"name":"o","type":"address","internalType":"address"}],"outputs":[],"stateMutability":"nonpayable"},{"type":"event","name":"AgentRegistered","inputs":[{"name":"agent","type":"address","indexed":true,"internalType":"address"},{"name":"name","type":"string","indexed":false,"internalType":"string"}],"anonymous":false},{"type":"event","name":"AnswerSubmitted","inputs":[{"name":"round","type":"uint256","indexed":true,"internalType":"uint256"},{"name":"agent","type":"address","indexed":true,"internalType":"address"}],"anonymous":false},{"type":"event","name":"ExamScored","inputs":[{"name":"round","type":"uint256","indexed":true,"internalType":"uint256"},{"name":"winners","type":"address[3]","indexed":false,"internalType":"address[3]"},{"name":"prizes","type":"uint256[3]","indexed":false,"internalType":"uint256[3]"}],"anonymous":false},{"type":"event","name":"ExamStarted","inputs":[{"name":"round","type":"uint256","indexed":true,"internalType":"uint256"},{"name":"questionRequestId","type":"uint256","indexed":false,"internalType":"uint256"}],"anonymous":false},{"type":"event","name":"OracleRequested","inputs":[{"name":"round","type":"uint256","indexed":true,"internalType":"uint256"},{"name":"requestId","type":"uint256","indexed":false,"internalType":"uint256"},{"name":"isScore","type":"bool","indexed":false,"internalType":"bool"}],"anonymous":false},{"type":"error","name":"FlapAIConsumerOnlyProvider","inputs":[]},{"type":"error","name":"FlapAIConsumerUnsupportedChain","inputs":[{"name":"chainId","type":"uint256","internalType":"uint256"}]},{"type":"error","name":"UnsupportedChain","inputs":[{"name":"chainId","type":"uint256","internalType":"uint256"}]}],"bytecode":{"object":"0x60a060405269d3c21bcecceda1000000600055610258600c553480156200002557600080fd5b50604051620053723803806200537283398181016040528101906200004b91906200016b565b600073ffffffffffffffffffffffffffffffffffffffff168173ffffffffffffffffffffffffffffffffffffffff16036200008557600080fd5b8073ffffffffffffffffffffffffffffffffffffffff1660808173ffffffffffffffffffffffffffffffffffffffff168152505033600160006101000a81548173ffffffffffffffffffffffffffffffffffffffff021916908373ffffffffffffffffffffffffffffffffffffffff160217905550506200019d565b600080fd5b600073ffffffffffffffffffffffffffffffffffffffff82169050919050565b6000620001338262000106565b9050919050565b620001458162000126565b81146200015157600080fd5b50565b60008151905062000165816200013a565b92915050565b60006020828403121562000184576200018362000101565b5b6000620001948482850162000154565b91505092915050565b6080516151ab620001c760003960008181610c8f015281816110e3015261237501526151ab6000f3fe6080604052600436106101dc5760003560e01c80638da5cb5b11610102578063ca3b92a511610095578063f2fde38b11610064578063f2fde38b146106d3578063fc0c546a146106fc578063fc2a88c314610727578063fd66091e14610752576101e3565b8063ca3b92a514610617578063d45675701461062e578063e6b4eacf14610659578063e7d3400214610696576101e3565b8063bbed0e84116100d1578063bbed0e8414610559578063c172db0014610584578063c1e3bd3e146105af578063c2f654da146105ec576101e3565b80638da5cb5b146104965780638f1327c0146104c15780638f65eaf614610505578063b7dc12841461052e576101e3565b80634e45feb21161017a5780636ff1c9bc116101495780636ff1c9bc146103da5780637284e416146104035780637dfca71c1461042e5780638a19c8bc1461046b576101e3565b80634e45feb21461032f5780634f0333eb146103585780635000d3e514610381578063638e7e6e1461039d576101e3565b80632d2a9585116101b65780632d2a9585146102635780632f80c54f1461028c5780633707c2fe146102c95780634707d00014610306576101e3565b80630d719cb2146101e857806312d3fac6146102115780631ba900eb1461023a576101e3565b366101e357005b600080fd5b3480156101f457600080fd5b5061020f600480360381019061020a9190612df1565b610793565b005b34801561021d57600080fd5b5061023860048036038101906102339190612eb9565b610b18565b005b34801561024657600080fd5b50610261600480360381019061025c9190612f66565b610fd4565b005b34801561026f57600080fd5b5061028a60048036038101906102859190612fa6565b61104e565b005b34801561029857600080fd5b506102b360048036038101906102ae9190612df1565b61137a565b6040516102c09190613034565b60405180910390f35b3480156102d557600080fd5b506102f060048036038101906102eb9190612df1565b6113b9565b6040516102fd919061305e565b60405180910390f35b34801561031257600080fd5b5061032d600480360381019061032891906130a5565b6113d1565b005b34801561033b57600080fd5b5061035660048036038101906103519190612df1565b61159a565b005b34801561036457600080fd5b5061037f600480360381019061037a9190612df1565b611671565b005b61039b60048036038101906103969190612df1565b611748565b005b3480156103a957600080fd5b506103c460048036038101906103bf9190612df1565b6117c0565b6040516103d19190613100565b60405180910390f35b3480156103e657600080fd5b5061040160048036038101906103fc9190613159565b6117e0565b005b34801561040f57600080fd5b50610418611927565b6040516104259190613216565b60405180910390f35b34801561043a57600080fd5b5061045560048036038101906104509190613238565b611973565b6040516104629190613287565b60405180910390f35b34801561047757600080fd5b50610480611998565b60405161048d919061305e565b60405180910390f35b3480156104a257600080fd5b506104ab61199e565b6040516104b89190613034565b60405180910390f35b3480156104cd57600080fd5b506104e860048036038101906104e39190612df1565b6119c4565b6040516104fc98979695949392919061346f565b60405180910390f35b34801561051157600080fd5b5061052c60048036038101906105279190613510565b611b04565b005b34801561053a57600080fd5b50610543611c79565b604051610550919061305e565b60405180910390f35b34801561056557600080fd5b5061056e611c86565b60405161057b919061305e565b60405180910390f35b34801561059057600080fd5b50610599611c8c565b6040516105a6919061305e565b60405180910390f35b3480156105bb57600080fd5b506105d660048036038101906105d19190612df1565b611c92565b6040516105e391906135e7565b60405180910390f35b3480156105f857600080fd5b50610601611d36565b60405161060e919061305e565b60405180910390f35b34801561062357600080fd5b5061062c611d3c565b005b34801561063a57600080fd5b50610643612148565b604051610650919061305e565b60405180910390f35b34801561066557600080fd5b50610680600480360381019061067b9190613238565b61214d565b60405161068d9190613100565b60405180910390f35b3480156106a257600080fd5b506106bd60048036038101906106b89190613238565b61217c565b6040516106ca9190613216565b60405180910390f35b3480156106df57600080fd5b506106fa60048036038101906106f59190613609565b612229565b005b34801561070857600080fd5b50610711612373565b60405161071e9190613034565b60405180910390f35b34801561073357600080fd5b5061073c612397565b604051610749919061305e565b60405180910390f35b34801561075e57600080fd5b5061077960048036038101906107749190613609565b6123a1565b60405161078a959493929190613636565b60405180910390f35b600160009054906101000a900473ffffffffffffffffffffffffffffffffffffffff1673ffffffffffffffffffffffffffffffffffffffff163373ffffffffffffffffffffffffffffffffffffffff16148061082157506107f261246c565b73ffffffffffffffffffffffffffffffffffffffff163373ffffffffffffffffffffffffffffffffffffffff16145b610860576040517f08c379a0000000000000000000000000000000000000000000000000000000008152600401610857906136dc565b60405180910390fd5b60006005600083815260200190815260200160002090506002600481111561088b5761088a6132a2565b5b8160040160009054906101000a900460ff1660048111156108af576108ae6132a2565b5b146108ef576040517f08c379a00000000000000000000000000000000000000000000000000000000081526004016108e690613748565b60405180910390fd5b60038160040160006101000a81548160ff02191690836004811115610917576109166132a2565b5b021790555060006109266124fc565b905060008173ffffffffffffffffffffffffffffffffffffffff16636d36169460006040518263ffffffff1660e01b8152600401610964919061305e565b600060405180830381865afa158015610981573d6000803e3d6000fd5b505050506040513d6000823e3d601f19601f820116820180604052508101906109aa9190613954565b602001519050804710156109f3576040517f08c379a00000000000000000000000000000000000000000000000000000000081526004016109ea906139e9565b60405180910390fd5b60008273ffffffffffffffffffffffffffffffffffffffff16638c9ab78a836000610a1d8961258c565b60036040518563ffffffff1660e01b8152600401610a3d93929190613a4e565b60206040518083038185885af1158015610a5b573d6000803e3d6000fd5b50505050506040513d601f19601f82011682018060405250810190610a809190613a8c565b90508084600101819055508060098190555084600a6000838152602001908152602001600020819055506001600b600083815260200190815260200160002060006101000a81548160ff021916908315150217905550847f10fe122ca97970dad624be7ab865930a43a5cc31949568d96cb4dbe693482adb826001604051610b09929190613ab9565b60405180910390a25050505050565b600060056000868152602001908152602001600020905060026004811115610b4357610b426132a2565b5b8160040160009054906101000a900460ff166004811115610b6757610b666132a2565b5b14610ba7576040517f08c379a0000000000000000000000000000000000000000000000000000000008152600401610b9e90613748565b60405180910390fd5b600c548160020154610bb99190613b11565b421115610bfb576040517f08c379a0000000000000000000000000000000000000000000000000000000008152600401610bf290613b91565b60405180910390fd5b600260003373ffffffffffffffffffffffffffffffffffffffff1673ffffffffffffffffffffffffffffffffffffffff16815260200190815260200160002060040160009054906101000a900460ff16610c8a576040517f08c379a0000000000000000000000000000000000000000000000000000000008152600401610c8190613bfd565b60405180910390fd5b6000547f000000000000000000000000000000000000000000000000000000000000000073ffffffffffffffffffffffffffffffffffffffff166370a08231336040518263ffffffff1660e01b8152600401610ce69190613034565b602060405180830381865afa158015610d03573d6000803e3d6000fd5b505050506040513d601f19601f82011682018060405250810190610d279190613a8c565b1015610d68576040517f08c379a0000000000000000000000000000000000000000000000000000000008152600401610d5f90613c69565b60405180910390fd5b6008600086815260200190815260200160002060003373ffffffffffffffffffffffffffffffffffffffff1673ffffffffffffffffffffffffffffffffffffffff16815260200190815260200160002060009054906101000a900460ff1615610e06576040517f08c379a0000000000000000000000000000000000000000000000000000000008152600401610dfd90613cd5565b60405180910390fd5b836006600087815260200190815260200160002060003373ffffffffffffffffffffffffffffffffffffffff1673ffffffffffffffffffffffffffffffffffffffff1681526020019081526020016000208190555082826007600088815260200190815260200160002060003373ffffffffffffffffffffffffffffffffffffffff1673ffffffffffffffffffffffffffffffffffffffff1681526020019081526020016000209182610eba929190613f02565b5060016008600087815260200190815260200160002060003373ffffffffffffffffffffffffffffffffffffffff1673ffffffffffffffffffffffffffffffffffffffff16815260200190815260200160002060006101000a81548160ff02191690831515021790555080600501339080600181540180825580915050600190039060005260206000200160009091909190916101000a81548173ffffffffffffffffffffffffffffffffffffffff021916908373ffffffffffffffffffffffffffffffffffffffff1602179055503373ffffffffffffffffffffffffffffffffffffffff16857fa09057f0c06a6d685ffe7bac25f2feb4b842d5036ffd66e6d37bdf9f5ab9e17d60405160405180910390a35050505050565b610fdc6124fc565b73ffffffffffffffffffffffffffffffffffffffff163373ffffffffffffffffffffffffffffffffffffffff1614611040576040517ffe5546e600000000000000000000000000000000000000000000000000000000815260040160405180910390fd5b61104a82826125e6565b5050565b600260003373ffffffffffffffffffffffffffffffffffffffff1673ffffffffffffffffffffffffffffffffffffffff16815260200190815260200160002060040160009054906101000a900460ff16156110de576040517f08c379a00000000000000000000000000000000000000000000000000000000081526004016110d59061401e565b60405180910390fd5b6000547f000000000000000000000000000000000000000000000000000000000000000073ffffffffffffffffffffffffffffffffffffffff166370a08231336040518263ffffffff1660e01b815260040161113a9190613034565b602060405180830381865afa158015611157573d6000803e3d6000fd5b505050506040513d601f19601f8201168201806040525081019061117b9190613a8c565b10156111bc576040517f08c379a00000000000000000000000000000000000000000000000000000000081526004016111b390613c69565b60405180910390fd5b6040518060a0016040528083838080601f016020809104026020016040519081016040528093929190818152602001838380828437600081840152601f19601f82011690508083019250505050505050815260200160008152602001600081526020016000815260200160011515815250600260003373ffffffffffffffffffffffffffffffffffffffff1673ffffffffffffffffffffffffffffffffffffffff1681526020019081526020016000206000820151816000019081611281919061403e565b5060208201518160010155604082015181600201556060820151816003015560808201518160040160006101000a81548160ff0219169083151502179055509050506003339080600181540180825580915050600190039060005260206000200160009091909190916101000a81548173ffffffffffffffffffffffffffffffffffffffff021916908373ffffffffffffffffffffffffffffffffffffffff1602179055503373ffffffffffffffffffffffffffffffffffffffff167fda816ca2fc37b9eecec62ae8263008ec6be1afb38dc28bc9c7c51d7e348da9c2838360405161136e92919061414c565b60405180910390a25050565b6003818154811061138a57600080fd5b906000526020600020016000915054906101000a900473ffffffffffffffffffffffffffffffffffffffff1681565b600a6020528060005260406000206000915090505481565b600160009054906101000a900473ffffffffffffffffffffffffffffffffffffffff1673ffffffffffffffffffffffffffffffffffffffff163373ffffffffffffffffffffffffffffffffffffffff16148061145f575061143061246c565b73ffffffffffffffffffffffffffffffffffffffff163373ffffffffffffffffffffffffffffffffffffffff16145b61149e576040517f08c379a0000000000000000000000000000000000000000000000000000000008152600401611495906136dc565b60405180910390fd5b8173ffffffffffffffffffffffffffffffffffffffff1663a9059cbb828473ffffffffffffffffffffffffffffffffffffffff166370a08231306040518263ffffffff1660e01b81526004016114f49190613034565b602060405180830381865afa158015611511573d6000803e3d6000fd5b505050506040513d601f19601f820116820180604052508101906115359190613a8c565b6040518363ffffffff1660e01b8152600401611552929190614170565b6020604051808303816000875af1158015611571573d6000803e3d6000fd5b505050506040513d601f19601f820116820180604052508101906115959190614199565b505050565b600160009054906101000a900473ffffffffffffffffffffffffffffffffffffffff1673ffffffffffffffffffffffffffffffffffffffff163373ffffffffffffffffffffffffffffffffffffffff16148061162857506115f961246c565b73ffffffffffffffffffffffffffffffffffffffff163373ffffffffffffffffffffffffffffffffffffffff16145b611667576040517f08c379a000000000000000000000000000000000000000000000000000000000815260040161165e906136dc565b60405180910390fd5b8060008190555050565b600160009054906101000a900473ffffffffffffffffffffffffffffffffffffffff1673ffffffffffffffffffffffffffffffffffffffff163373ffffffffffffffffffffffffffffffffffffffff1614806116ff57506116d061246c565b73ffffffffffffffffffffffffffffffffffffffff163373ffffffffffffffffffffffffffffffffffffffff16145b61173e576040517f08c379a0000000000000000000000000000000000000000000000000000000008152600401611735906136dc565b60405180910390fd5b80600c8190555050565b6117506124fc565b73ffffffffffffffffffffffffffffffffffffffff163373ffffffffffffffffffffffffffffffffffffffff16146117b4576040517ffe5546e600000000000000000000000000000000000000000000000000000000815260040160405180910390fd5b6117bd81612790565b50565b600b6020528060005260406000206000915054906101000a900460ff1681565b600160009054906101000a900473ffffffffffffffffffffffffffffffffffffffff1673ffffffffffffffffffffffffffffffffffffffff163373ffffffffffffffffffffffffffffffffffffffff16148061186e575061183f61246c565b73ffffffffffffffffffffffffffffffffffffffff163373ffffffffffffffffffffffffffffffffffffffff16145b6118ad576040517f08c379a00000000000000000000000000000000000000000000000000000000081526004016118a4906136dc565b60405180910390fd5b60008173ffffffffffffffffffffffffffffffffffffffff16476040516118d3906141f7565b60006040518083038185875af1925050503d8060008114611910576040519150601f19603f3d011682016040523d82523d6000602084013e611915565b606091505b505090508061192357600080fd5b5050565b6060611934600d546127fd565b6119426003805490506127fd565b61194d6004546127fd565b60405160200161195f9392919061432c565b604051602081830303815290604052905090565b6006602052816000526040600020602052806000526040600020600091509150505481565b60045481565b600160009054906101000a900473ffffffffffffffffffffffffffffffffffffffff1681565b6000806000806000806119d5612cb3565b6119dd612cd5565b6000600560008b8152602001908152602001600020905080600001548160010154826002015483600301548460040160009054906101000a900460ff1685600c0160009054906101000a900460ff16866006018760090181600380602002604051908101604052809291908260038015611aa2576020028201915b8160009054906101000a900473ffffffffffffffffffffffffffffffffffffffff1673ffffffffffffffffffffffffffffffffffffffff1681526020019060010190808311611a58575b5050505050915080600380602002604051908101604052809291908260038015611ae1576020028201915b815481526020019060010190808311611acd575b505050505090509850985098509850985098509850985050919395975091939597565b600160009054906101000a900473ffffffffffffffffffffffffffffffffffffffff1673ffffffffffffffffffffffffffffffffffffffff163373ffffffffffffffffffffffffffffffffffffffff161480611b925750611b6361246c565b73ffffffffffffffffffffffffffffffffffffffff163373ffffffffffffffffffffffffffffffffffffffff16145b611bd1576040517f08c379a0000000000000000000000000000000000000000000000000000000008152600401611bc8906136dc565b60405180910390fd5b600060056000848152602001908152602001600020905060036004811115611bfc57611bfb6132a2565b5b8160040160009054906101000a900460ff166004811115611c2057611c1f6132a2565b5b14611c60576040517f08c379a0000000000000000000000000000000000000000000000000000000008152600401611c57906143ca565b60405180910390fd5b8181600601906003611c73929190612cf7565b50505050565b6000600380549050905090565b60005481565b600d5481565b606060056000838152602001908152602001600020600501805480602002602001604051908101604052809291908181526020018280548015611d2a57602002820191906000526020600020905b8160009054906101000a900473ffffffffffffffffffffffffffffffffffffffff1673ffffffffffffffffffffffffffffffffffffffff1681526020019060010190808311611ce0575b50505050509050919050565b600c5481565b600160009054906101000a900473ffffffffffffffffffffffffffffffffffffffff1673ffffffffffffffffffffffffffffffffffffffff163373ffffffffffffffffffffffffffffffffffffffff161480611dca5750611d9b61246c565b73ffffffffffffffffffffffffffffffffffffffff163373ffffffffffffffffffffffffffffffffffffffff16145b611e09576040517f08c379a0000000000000000000000000000000000000000000000000000000008152600401611e00906136dc565b60405180910390fd5b60006004541115611ea057600480811115611e2757611e266132a2565b5b60056000600454815260200190815260200160002060040160009054906101000a900460ff166004811115611e5f57611e5e6132a2565b5b14611e9f576040517f08c379a0000000000000000000000000000000000000000000000000000000008152600401611e9690614436565b60405180910390fd5b5b60046000815480929190611eb390614456565b91905055506000600560006004548152602001908152602001600020905042816002018190555047816003018190555060018160040160006101000a81548160ff02191690836004811115611f0b57611f0a6132a2565b5b02179055506000611f1a6124fc565b905060008173ffffffffffffffffffffffffffffffffffffffff16636d36169460006040518263ffffffff1660e01b8152600401611f58919061305e565b600060405180830381865afa158015611f75573d6000803e3d6000fd5b505050506040513d6000823e3d601f19601f82011682018060405250810190611f9e9190613954565b60200151905080471015611fe7576040517f08c379a0000000000000000000000000000000000000000000000000000000008152600401611fde906139e9565b60405180910390fd5b60008273ffffffffffffffffffffffffffffffffffffffff16638c9ab78a83600061201061295a565b60056040518563ffffffff1660e01b8152600401612030939291906144d9565b60206040518083038185885af115801561204e573d6000803e3d6000fd5b50505050506040513d601f19601f820116820180604052508101906120739190613a8c565b905080846000018190555080600981905550600454600a6000838152602001908152602001600020819055506000600b600083815260200190815260200160002060006101000a81548160ff0219169083151502179055506004547f7b9f8c354b7161d96b6fe4d1c1413c6566659c3c442f390ef6a3ee21e1f2e08e826040516120fd919061305e565b60405180910390a26004547f10fe122ca97970dad624be7ab865930a43a5cc31949568d96cb4dbe693482adb82600060405161213a929190613ab9565b60405180910390a250505050565b600081565b60086020528160005260406000206020528060005260406000206000915091509054906101000a900460ff1681565b60076020528160005260406000206020528060005260406000206000915091505080546121a890613d2f565b80601f01602080910402602001604051908101604052809291908181526020018280546121d490613d2f565b80156122215780601f106121f657610100808354040283529160200191612221565b820191906000526020600020905b81548152906001019060200180831161220457829003601f168201915b505050505081565b600160009054906101000a900473ffffffffffffffffffffffffffffffffffffffff1673ffffffffffffffffffffffffffffffffffffffff163373ffffffffffffffffffffffffffffffffffffffff1614806122b7575061228861246c565b73ffffffffffffffffffffffffffffffffffffffff163373ffffffffffffffffffffffffffffffffffffffff16145b6122f6576040517f08c379a00000000000000000000000000000000000000000000000000000000081526004016122ed906136dc565b60405180910390fd5b600073ffffffffffffffffffffffffffffffffffffffff168173ffffffffffffffffffffffffffffffffffffffff160361232f57600080fd5b80600160006101000a81548173ffffffffffffffffffffffffffffffffffffffff021916908373ffffffffffffffffffffffffffffffffffffffff16021790555050565b7f000000000000000000000000000000000000000000000000000000000000000081565b6000600954905090565b60026020528060005260406000206000915090508060000180546123c490613d2f565b80601f01602080910402602001604051908101604052809291908181526020018280546123f090613d2f565b801561243d5780601f106124125761010080835404028352916020019161243d565b820191906000526020600020905b81548152906001019060200180831161242057829003601f168201915b5050505050908060010154908060020154908060030154908060040160009054906101000a900460ff16905085565b6000804690506038810361249757739e27098dcd8844bcc6287a557e0b4d09c86b8a4b9150506124f9565b606181036124bc577376fa8c526f8bc27ba6958b76deef92a0dbe469509150506124f9565b806040517fc3a55c980000000000000000000000000000000000000000000000000000000081526004016124f0919061305e565b60405180910390fd5b90565b600080469050603881036125275773aee3a7ca6fe6b53f6c32a3e8407ec5a9df8b7e39915050612589565b6061810361254c5773fbee0a1c921f6f4dadfadd102b8276175d1b518d915050612589565b806040517fb9ae4074000000000000000000000000000000000000000000000000000000008152600401612580919061305e565b60405180910390fd5b90565b606060006005600084815260200190815260200160002090506125ae836127fd565b6125be82600501805490506127fd565b6040516020016125cf9291906148a7565b604051602081830303815290604052915050919050565b6000600a600084815260200190815260200160002054905060008111612641576040517f08c379a00000000000000000000000000000000000000000000000000000000081526004016126389061497a565b60405180910390fd5b6000600560008381526020019081526020016000209050600b600085815260200190815260200160002060009054906101000a900460ff166126af5760028160040160006101000a81548160ff021916908360048111156126a5576126a46132a2565b5b0217905550612782565b60008360ff160361272a576126c38261297f565b600181600c0160006101000a81548160ff02191690831515021790555060048160040160006101000a81548160ff02191690836004811115612708576127076132a2565b5b0217905550600d600081548092919061272090614456565b9190505550612781565b60018360ff160361277f5760048160040160006101000a81548160ff0219169083600481111561275d5761275c6132a2565b5b0217905550600d600081548092919061277590614456565b9190505550612780565b5b5b5b600060098190555050505050565b6000600a600083815260200190815260200160002054905060008111156127f15760046005600083815260200190815260200160002060040160006101000a81548160ff021916908360048111156127eb576127ea6132a2565b5b02179055505b60006009819055505050565b606060008203612844576040518060400160405280600181526020017f30000000000000000000000000000000000000000000000000000000000000008152509050612955565b600082905060005b6000821461287657808061285f90614456565b915050600a8261286f91906149c9565b915061284c565b60008167ffffffffffffffff8111156128925761289161376d565b5b6040519080825280601f01601f1916602001820160405280156128c45781602001600182028036833780820191505090505b5090505b6000851461294e57600a856128dd91906149fa565b60306128e99190613b11565b60f81b81836128f790614a2b565b9350838151811061290b5761290a614a54565b5b60200101907effffffffffffffffffffffffffffffffffffffffffffffffffffffffffffff1916908160001a905350600a8561294791906149c9565b94506128c8565b8093505050505b919050565b606060405160200161296b90614eab565b604051602081830303815290604052905090565b6000600560008381526020019081526020016000209050600081600301549050600081036129ae575050612cb0565b6000604051806060016040528060646032856129ca9190614f0d565b6129d491906149c9565b81526020016064601e856129e89190614f0d565b6129f291906149c9565b81526020016064601485612a069190614f0d565b612a1091906149c9565b815250905060005b6003811015612c6b576000846006018260038110612a3957612a38614a54565b5b0160009054906101000a900473ffffffffffffffffffffffffffffffffffffffff169050600073ffffffffffffffffffffffffffffffffffffffff168173ffffffffffffffffffffffffffffffffffffffff1603612a975750612c58565b828260038110612aaa57612aa9614a54565b5b6020020151856009018360038110612ac557612ac4614a54565b5b0181905550600260008273ffffffffffffffffffffffffffffffffffffffff1673ffffffffffffffffffffffffffffffffffffffff1681526020019081526020016000206002016000815480929190612b1d90614456565b9190505550828260038110612b3557612b34614a54565b5b6020020151600260008373ffffffffffffffffffffffffffffffffffffffff1673ffffffffffffffffffffffffffffffffffffffff1681526020019081526020016000206003016000828254612b8b9190613b11565b9250508190555060008173ffffffffffffffffffffffffffffffffffffffff16848460038110612bbe57612bbd614a54565b5b6020020151604051612bcf906141f7565b60006040518083038185875af1925050503d8060008114612c0c576040519150601f19603f3d011682016040523d82523d6000602084013e612c11565b606091505b5050905080612c55576040517f08c379a0000000000000000000000000000000000000000000000000000000008152600401612c4c90614f9b565b60405180910390fd5b50505b8080612c6390614456565b915050612a18565b50837ff2ebfc6c70647b6f219346d9845eb63aae120d64e8874424a067a13d497479bb8460060185600901604051612ca492919061514c565b60405180910390a25050505b50565b6040518060600160405280600390602082028036833780820191505090505090565b6040518060600160405280600390602082028036833780820191505090505090565b8260038101928215612d79579160200282015b82811115612d7857823573ffffffffffffffffffffffffffffffffffffffff168260006101000a81548173ffffffffffffffffffffffffffffffffffffffff021916908373ffffffffffffffffffffffffffffffffffffffff16021790555091602001919060010190612d0a565b5b509050612d869190612d8a565b5090565b5b80821115612da3576000816000905550600101612d8b565b5090565b6000604051905090565b600080fd5b600080fd5b6000819050919050565b612dce81612dbb565b8114612dd957600080fd5b50565b600081359050612deb81612dc5565b92915050565b600060208284031215612e0757612e06612db1565b5b6000612e1584828501612ddc565b91505092915050565b6000819050919050565b612e3181612e1e565b8114612e3c57600080fd5b50565b600081359050612e4e81612e28565b92915050565b600080fd5b600080fd5b600080fd5b60008083601f840112612e7957612e78612e54565b5b8235905067ffffffffffffffff811115612e9657612e95612e59565b5b602083019150836001820283011115612eb257612eb1612e5e565b5b9250929050565b60008060008060608587031215612ed357612ed2612db1565b5b6000612ee187828801612ddc565b9450506020612ef287828801612e3f565b935050604085013567ffffffffffffffff811115612f1357612f12612db6565b5b612f1f87828801612e63565b925092505092959194509250565b600060ff82169050919050565b612f4381612f2d565b8114612f4e57600080fd5b50565b600081359050612f6081612f3a565b92915050565b60008060408385031215612f7d57612f7c612db1565b5b6000612f8b85828601612ddc565b9250506020612f9c85828601612f51565b9150509250929050565b60008060208385031215612fbd57612fbc612db1565b5b600083013567ffffffffffffffff811115612fdb57612fda612db6565b5b612fe785828601612e63565b92509250509250929050565b600073ffffffffffffffffffffffffffffffffffffffff82169050919050565b600061301e82612ff3565b9050919050565b61302e81613013565b82525050565b60006020820190506130496000830184613025565b92915050565b61305881612dbb565b82525050565b6000602082019050613073600083018461304f565b92915050565b61308281613013565b811461308d57600080fd5b50565b60008135905061309f81613079565b92915050565b600080604083850312156130bc576130bb612db1565b5b60006130ca85828601613090565b92505060206130db85828601613090565b9150509250929050565b60008115159050919050565b6130fa816130e5565b82525050565b600060208201905061311560008301846130f1565b92915050565b600061312682612ff3565b9050919050565b6131368161311b565b811461314157600080fd5b50565b6000813590506131538161312d565b92915050565b60006020828403121561316f5761316e612db1565b5b600061317d84828501613144565b91505092915050565b600081519050919050565b600082825260208201905092915050565b60005b838110156131c05780820151818401526020810190506131a5565b60008484015250505050565b6000601f19601f8301169050919050565b60006131e882613186565b6131f28185613191565b93506132028185602086016131a2565b61320b816131cc565b840191505092915050565b6000602082019050818103600083015261323081846131dd565b905092915050565b6000806040838503121561324f5761324e612db1565b5b600061325d85828601612ddc565b925050602061326e85828601613090565b9150509250929050565b61328181612e1e565b82525050565b600060208201905061329c6000830184613278565b92915050565b7f4e487b7100000000000000000000000000000000000000000000000000000000600052602160045260246000fd5b600581106132e2576132e16132a2565b5b50565b60008190506132f3826132d1565b919050565b6000613303826132e5565b9050919050565b613313816132f8565b82525050565b600060039050919050565b600081905092915050565b6000819050919050565b61334281613013565b82525050565b60006133548383613339565b60208301905092915050565b6000602082019050919050565b61337681613319565b6133808184613324565b925061338b8261332f565b8060005b838110156133bc5781516133a38782613348565b96506133ae83613360565b92505060018101905061338f565b505050505050565b600060039050919050565b600081905092915050565b6000819050919050565b6133ed81612dbb565b82525050565b60006133ff83836133e4565b60208301905092915050565b6000602082019050919050565b613421816133c4565b61342b81846133cf565b9250613436826133da565b8060005b8381101561346757815161344e87826133f3565b96506134598361340b565b92505060018101905061343a565b505050505050565b600061018082019050613485600083018b61304f565b613492602083018a61304f565b61349f604083018961304f565b6134ac606083018861304f565b6134b9608083018761330a565b6134c660a08301866130f1565b6134d360c083018561336d565b6134e1610120830184613418565b9998505050505050505050565b60008190508260206003028201111561350a57613509612e5e565b5b92915050565b6000806080838503121561352757613526612db1565b5b600061353585828601612ddc565b9250506020613546858286016134ee565b9150509250929050565b600081519050919050565b600082825260208201905092915050565b6000819050602082019050919050565b6000602082019050919050565b600061359482613550565b61359e818561355b565b93506135a98361356c565b8060005b838110156135da5781516135c18882613348565b97506135cc8361357c565b9250506001810190506135ad565b5085935050505092915050565b600060208201905081810360008301526136018184613589565b905092915050565b60006020828403121561361f5761361e612db1565b5b600061362d84828501613090565b91505092915050565b600060a082019050818103600083015261365081886131dd565b905061365f602083018761304f565b61366c604083018661304f565b613679606083018561304f565b61368660808301846130f1565b9695505050505050565b7f2161757468000000000000000000000000000000000000000000000000000000600082015250565b60006136c6600583613191565b91506136d182613690565b602082019050919050565b600060208201905081810360008301526136f5816136b9565b9050919050565b7f6e6f7420696e20616e73776572696e6720706861736500000000000000000000600082015250565b6000613732601683613191565b915061373d826136fc565b602082019050919050565b6000602082019050818103600083015261376181613725565b9050919050565b600080fd5b7f4e487b7100000000000000000000000000000000000000000000000000000000600052604160045260246000fd5b6137a5826131cc565b810181811067ffffffffffffffff821117156137c4576137c361376d565b5b80604052505050565b60006137d7612da7565b90506137e3828261379c565b919050565b600080fd5b600080fd5b600067ffffffffffffffff82111561380d5761380c61376d565b5b613816826131cc565b9050602081019050919050565b6000613836613831846137f2565b6137cd565b905082815260208101848484011115613852576138516137ed565b5b61385d8482856131a2565b509392505050565b600082601f83011261387a57613879612e54565b5b815161388a848260208601613823565b91505092915050565b6000815190506138a281612dc5565b92915050565b6138b1816130e5565b81146138bc57600080fd5b50565b6000815190506138ce816138a8565b92915050565b6000606082840312156138ea576138e9613768565b5b6138f460606137cd565b9050600082015167ffffffffffffffff811115613914576139136137e8565b5b61392084828501613865565b600083015250602061393484828501613893565b6020830152506040613948848285016138bf565b60408301525092915050565b60006020828403121561396a57613969612db1565b5b600082015167ffffffffffffffff81111561398857613987612db6565b5b613994848285016138d4565b91505092915050565b7f696e73756666696369656e742066656500000000000000000000000000000000600082015250565b60006139d3601083613191565b91506139de8261399d565b602082019050919050565b60006020820190508181036000830152613a02816139c6565b9050919050565b6000819050919050565b6000819050919050565b6000613a38613a33613a2e84613a09565b613a13565b612f2d565b9050919050565b613a4881613a1d565b82525050565b6000606082019050613a63600083018661304f565b8181036020830152613a7581856131dd565b9050613a846040830184613a3f565b949350505050565b600060208284031215613aa257613aa1612db1565b5b6000613ab084828501613893565b91505092915050565b6000604082019050613ace600083018561304f565b613adb60208301846130f1565b9392505050565b7f4e487b7100000000000000000000000000000000000000000000000000000000600052601160045260246000fd5b6000613b1c82612dbb565b9150613b2783612dbb565b9250828201905080821115613b3f57613b3e613ae2565b5b92915050565b7f616e737765722077696e646f7720636c6f736564000000000000000000000000600082015250565b6000613b7b601483613191565b9150613b8682613b45565b602082019050919050565b60006020820190508181036000830152613baa81613b6e565b9050919050565b7f6e6f742072656769737465726564000000000000000000000000000000000000600082015250565b6000613be7600e83613191565b9150613bf282613bb1565b602082019050919050565b60006020820190508181036000830152613c1681613bda565b9050919050565b7f696e73756666696369656e7420686f6c64696e67000000000000000000000000600082015250565b6000613c53601483613191565b9150613c5e82613c1d565b602082019050919050565b60006020820190508181036000830152613c8281613c46565b9050919050565b7f616c726561647920616e73776572656400000000000000000000000000000000600082015250565b6000613cbf601083613191565b9150613cca82613c89565b602082019050919050565b60006020820190508181036000830152613cee81613cb2565b9050919050565b600082905092915050565b7f4e487b7100000000000000000000000000000000000000000000000000000000600052602260045260246000fd5b60006002820490506001821680613d4757607f821691505b602082108103613d5a57613d59613d00565b5b50919050565b60008190508160005260206000209050919050565b60006020601f8301049050919050565b600082821b905092915050565b600060088302613dc27fffffffffffffffffffffffffffffffffffffffffffffffffffffffffffffffff82613d85565b613dcc8683613d85565b95508019841693508086168417925050509392505050565b6000613dff613dfa613df584612dbb565b613a13565b612dbb565b9050919050565b6000819050919050565b613e1983613de4565b613e2d613e2582613e06565b848454613d92565b825550505050565b600090565b613e42613e35565b613e4d818484613e10565b505050565b5b81811015613e7157613e66600082613e3a565b600181019050613e53565b5050565b601f821115613eb657613e8781613d60565b613e9084613d75565b81016020851015613e9f578190505b613eb3613eab85613d75565b830182613e52565b50505b505050565b600082821c905092915050565b6000613ed960001984600802613ebb565b1980831691505092915050565b6000613ef28383613ec8565b9150826002028217905092915050565b613f0c8383613cf5565b67ffffffffffffffff811115613f2557613f2461376d565b5b613f2f8254613d2f565b613f3a828285613e75565b6000601f831160018114613f695760008415613f57578287013590505b613f618582613ee6565b865550613fc9565b601f198416613f7786613d60565b60005b82811015613f9f57848901358255600182019150602085019450602081019050613f7a565b86831015613fbc5784890135613fb8601f891682613ec8565b8355505b6001600288020188555050505b50505050505050565b7f616c726561647920726567697374657265640000000000000000000000000000600082015250565b6000614008601283613191565b915061401382613fd2565b602082019050919050565b6000602082019050818103600083015261403781613ffb565b9050919050565b61404782613186565b67ffffffffffffffff8111156140605761405f61376d565b5b61406a8254613d2f565b614075828285613e75565b600060209050601f8311600181146140a85760008415614096578287015190505b6140a08582613ee6565b865550614108565b601f1984166140b686613d60565b60005b828110156140de578489015182556001820191506020850194506020810190506140b9565b868310156140fb57848901516140f7601f891682613ec8565b8355505b6001600288020188555050505b505050505050565b82818337600083830152505050565b600061412b8385613191565b9350614138838584614110565b614141836131cc565b840190509392505050565b6000602082019050818103600083015261416781848661411f565b90509392505050565b60006040820190506141856000830185613025565b614192602083018461304f565b9392505050565b6000602082840312156141af576141ae612db1565b5b60006141bd848285016138bf565b91505092915050565b600081905092915050565b50565b60006141e16000836141c6565b91506141ec826141d1565b600082019050919050565b6000614202826141d4565b9150819050919050565b600081905092915050565b7f4c6f627374657220556e6976657273697479207c204578616d733a2000000000600082015250565b600061424d601c8361420c565b915061425882614217565b601c82019050919050565b600061426e82613186565b614278818561420c565b93506142888185602086016131a2565b80840191505092915050565b7f207c204167656e74733a20000000000000000000000000000000000000000000600082015250565b60006142ca600b8361420c565b91506142d582614294565b600b82019050919050565b7f207c20526f756e643a2000000000000000000000000000000000000000000000600082015250565b6000614316600a8361420c565b9150614321826142e0565b600a82019050919050565b600061433782614240565b91506143438286614263565b915061434e826142bd565b915061435a8285614263565b915061436582614309565b91506143718284614263565b9150819050949350505050565b7f6e6f7420696e2073636f72696e67207068617365000000000000000000000000600082015250565b60006143b4601483613191565b91506143bf8261437e565b602082019050919050565b600060208201905081810360008301526143e3816143a7565b9050919050565b7f7072657620726f756e64206e6f7420646f6e6500000000000000000000000000600082015250565b6000614420601383613191565b915061442b826143ea565b602082019050919050565b6000602082019050818103600083015261444f81614413565b9050919050565b600061446182612dbb565b91507fffffffffffffffffffffffffffffffffffffffffffffffffffffffffffffffff820361449357614492613ae2565b5b600182019050919050565b6000819050919050565b60006144c36144be6144b98461449e565b613a13565b612f2d565b9050919050565b6144d3816144a8565b82525050565b60006060820190506144ee600083018661304f565b818103602083015261450081856131dd565b905061450f60408301846144ca565b949350505050565b7f596f7520617265207468652073636f72696e67206f7261636c65206f66204c6f60008201527f627374657220556e69766572736974792e200000000000000000000000000000602082015250565b600061457360328361420c565b915061457e82614517565b603282019050919050565b7f526f756e64200000000000000000000000000000000000000000000000000000600082015250565b60006145bf60068361420c565b91506145ca82614589565b600682019050919050565b7f2068616420000000000000000000000000000000000000000000000000000000600082015250565b600061460b60058361420c565b9150614616826145d5565b600582019050919050565b7f207061727469636970616e74732e200000000000000000000000000000000000600082015250565b6000614657600f8361420c565b915061466282614621565b600f82019050919050565b7f546865206578616d2061646d696e20686173207375626d69747465642077696e60008201527f6e65722072616e6b696e67732e20000000000000000000000000000000000000602082015250565b60006146c9602e8361420c565b91506146d48261466d565b602e82019050919050565b7f566572696679207468652073636f72696e67206973206661697220616e64206360008201527f6f6e73697374656e742e20000000000000000000000000000000000000000000602082015250565b600061473b602b8361420c565b9150614746826146df565b602b82019050919050565b7f28302920434f4e4649524d202d2073636f72696e672069732076616c69642c2060008201527f6469737472696275746520726577617264732e20000000000000000000000000602082015250565b60006147ad60348361420c565b91506147b882614751565b603482019050919050565b7f2831292052454a454354202d2073636f72696e6720697320756e666169722c2060008201527f766f6964207468697320726f756e642e20000000000000000000000000000000602082015250565b600061481f60318361420c565b915061482a826147c3565b603182019050919050565b7f28322920524556494557202d206e656564206d6f726520696e666f726d61746960008201527f6f6e2e0000000000000000000000000000000000000000000000000000000000602082015250565b600061489160238361420c565b915061489c82614835565b602382019050919050565b60006148b282614566565b91506148bd826145b2565b91506148c98285614263565b91506148d4826145fe565b91506148e08284614263565b91506148eb8261464a565b91506148f6826146bc565b91506149018261472e565b915061490c826147a0565b915061491782614812565b915061492282614884565b91508190509392505050565b7f756e6b6e6f776e20726571756573740000000000000000000000000000000000600082015250565b6000614964600f83613191565b915061496f8261492e565b602082019050919050565b6000602082019050818103600083015261499381614957565b9050919050565b7f4e487b7100000000000000000000000000000000000000000000000000000000600052601260045260246000fd5b60006149d482612dbb565b91506149df83612dbb565b9250826149ef576149ee61499a565b5b828204905092915050565b6000614a0582612dbb565b9150614a1083612dbb565b925082614a2057614a1f61499a565b5b828206905092915050565b6000614a3682612dbb565b915060008203614a4957614a48613ae2565b5b600182039050919050565b7f4e487b7100000000000000000000000000000000000000000000000000000000600052603260045260246000fd5b7f596f752061726520746865206578616d206d6173746572206f66204c6f62737460008201527f657220556e69766572736974792c20616e206f6e2d636861696e20414920616760208201527f656e74206172656e612e20000000000000000000000000000000000000000000604082015250565b6000614b05604b8361420c565b9150614b1082614a83565b604b82019050919050565b7f47656e6572617465204f4e45206368616c6c656e67696e67206578616d20717560008201527f657374696f6e2e205069636b20612072616e646f6d2063617465676f72793a20602082015250565b6000614b7760408361420c565b9150614b8282614b1b565b604082019050919050565b7f28302920536d61727420436f6e7472616374204175646974202d2066696e642060008201527f76756c6e65726162696c697469657320696e20536f6c696469747920636f646560208201527f2e20000000000000000000000000000000000000000000000000000000000000604082015250565b6000614c0f60428361420c565b9150614c1a82614b8d565b604282019050919050565b7f283129204f6e2d636861696e20416e616c79736973202d20616e616c797a652060008201527f7472616e73616374696f6e207061747465726e73206f722077616c6c6574206260208201527f65686176696f722e200000000000000000000000000000000000000000000000604082015250565b6000614ca760498361420c565b9150614cb282614c25565b604982019050919050565b7f2832292054726164696e67205374726174656779202d2064657369676e206f7060008201527f74696d616c20656e7472792f6578697420666f7220676976656e206d61726b6560208201527f7420646174612e20000000000000000000000000000000000000000000000000604082015250565b6000614d3f60488361420c565b9150614d4a82614cbd565b604882019050919050565b7f2833292047616d65205468656f7279202d20736f6c76652061206d756c74692d60008201527f6167656e74207374726174656769632064696c656d6d612e2000000000000000602082015250565b6000614db160398361420c565b9150614dbc82614d55565b603982019050919050565b7f2834292043727970746f204e6172726174697665202d2063726166742074686560008201527f206d6f737420766972616c206d656d6520636f696e2070697463682e20000000602082015250565b6000614e23603d8361420c565b9150614e2e82614dc7565b603d82019050919050565b7f5265706c792077697468204f4e4c59207468652063617465676f7279206e756d60008201527f6265722e00000000000000000000000000000000000000000000000000000000602082015250565b6000614e9560248361420c565b9150614ea082614e39565b602482019050919050565b6000614eb682614af8565b9150614ec182614b6a565b9150614ecc82614c02565b9150614ed782614c9a565b9150614ee282614d32565b9150614eed82614da4565b9150614ef882614e16565b9150614f0382614e88565b9150819050919050565b6000614f1882612dbb565b9150614f2383612dbb565b9250828202614f3181612dbb565b91508282048414831517614f4857614f47613ae2565b5b5092915050565b7f7472616e73666572206661696c65640000000000000000000000000000000000600082015250565b6000614f85600f83613191565b9150614f9082614f4f565b602082019050919050565b60006020820190508181036000830152614fb481614f78565b9050919050565b600060039050919050565b6000819050919050565b60008160001c9050919050565b600073ffffffffffffffffffffffffffffffffffffffff82169050919050565b600061501061500b83614fd0565b614fdd565b9050919050565b60006150238254614ffd565b9050919050565b6000600182019050919050565b61504081614fbb565b61504a8184613324565b925061505582614fc6565b8060005b8381101561508d5761506a82615017565b6150748782613348565b965061507f8361502a565b925050600181019050615059565b505050505050565b600060039050919050565b6000819050919050565b6000819050919050565b60006150c76150c283614fd0565b6150aa565b9050919050565b60006150da82546150b4565b9050919050565b6000600182019050919050565b6150f781615095565b61510181846133cf565b925061510c826150a0565b8060005b8381101561514457615121826150ce565b61512b87826133f3565b9650615136836150e1565b925050600181019050615110565b505050505050565b600060c0820190506151616000830185615037565b61516e60608301846150ee565b939250505056fea26469706673582212202a24bfeba3ed9756703ebfeb8b11d4a73ee5b89ae3857254e57657f6c0e9a2d564736f6c63430008140033","linkReferences":{}},"methodIdentifiers":{"MODEL_ID()":"d4567570","agentCount()":"b7dc1284","agentList(uint256)":"2f80c54f","agents(address)":"fd66091e","answerCids(uint256,address)":"e7d34002","answerWindow()":"c2f654da","answers(uint256,address)":"7dfca71c","closeExam(uint256)":"0d719cb2","currentRound()":"8a19c8bc","description()":"7284e416","emergencyWithdraw(address)":"6ff1c9bc","fulfillReasoning(uint256,uint8)":"1ba900eb","getParticipants(uint256)":"c1e3bd3e","getRound(uint256)":"8f1327c0","hasAnswered(uint256,address)":"e6b4eacf","isScoreReq(uint256)":"638e7e6e","lastRequestId()":"fc2a88c3","minHolding()":"bbed0e84","onFlapAIRequestRefunded(uint256)":"5000d3e5","owner()":"8da5cb5b","registerAgent(string)":"2d2a9585","reqToRound(uint256)":"3707c2fe","rescueToken(address,address)":"4707d000","setAnswerWindow(uint256)":"4f0333eb","setMinHolding(uint256)":"4e45feb2","startExam()":"ca3b92a5","submitAnswer(uint256,bytes32,string)":"12d3fac6","submitWinners(uint256,address[3])":"8f65eaf6","token()":"fc0c546a","totalExams()":"c172db00","transferOwnership(address)":"f2fde38b"},"id":0}